{
  "_format": "hh-sol-artifact-1",
  "contractName": "EmployeePrivacyFHE",
  "sourceName": "contracts/EmployeePrivacyFHE.sol",
  "abi": [
    {
      "inputs": [],
      "stateMutability": "nonpayable",
      "type": "constructor"
    },
    {
      "inputs": [],
      "name": "HandlesAlreadySavedForRequestID",
      "type": "error"
    },
    {
      "anonymous": false,
      "inputs": [
        {
          "indexed": true,
          "internalType": "uint256",
          "name": "surveyId",
          "type": "uint256"
        },
        {
          "indexed": true,
          "internalType": "address",
          "name": "respondent",
          "type": "address"
        },
        {
          "indexed": false,
          "internalType": "uint256",
          "name": "timestamp",
          "type": "uint256"
        }
      ],
      "name": "ResponseSubmitted",
      "type": "event"
    },
    {
      "anonymous": false,
      "inputs": [
        {
          "indexed": true,
          "internalType": "uint256",
          "name": "surveyId",
          "type": "uint256"
        },
        {
          "indexed": true,
          "internalType": "uint256",
          "name": "questionId",
          "type": "uint256"
        },
        {
          "indexed": false,
          "internalType": "uint256",
          "name": "requestId",
          "type": "uint256"
        }
      ],
      "name": "ResultDecryptionRequested",
      "type": "event"
    },
    {
      "anonymous": false,
      "inputs": [
        {
          "indexed": true,
          "internalType": "uint256",
          "name": "surveyId",
          "type": "uint256"
        },
        {
          "indexed": false,
          "internalType": "uint256",
          "name": "totalResponses",
          "type": "uint256"
        }
      ],
      "name": "ResultsPublished",
      "type": "event"
    },
    {
      "anonymous": false,
      "inputs": [
        {
          "indexed": true,
          "internalType": "uint256",
          "name": "surveyId",
          "type": "uint256"
        },
        {
          "indexed": true,
          "internalType": "address",
          "name": "creator",
          "type": "address"
        },
        {
          "indexed": false,
          "internalType": "string",
          "name": "title",
          "type": "string"
        },
        {
          "indexed": false,
          "internalType": "uint256",
          "name": "endTime",
          "type": "uint256"
        }
      ],
      "name": "SurveyCreated",
      "type": "event"
    },
    {
      "inputs": [
        {
          "internalType": "uint256",
          "name": "_surveyId",
          "type": "uint256"
        }
      ],
      "name": "closeSurvey",
      "outputs": [],
      "stateMutability": "nonpayable",
      "type": "function"
    },
    {
      "inputs": [
        {
          "internalType": "string",
          "name": "_title",
          "type": "string"
        },
        {
          "internalType": "string",
          "name": "_description",
          "type": "string"
        },
        {
          "internalType": "string[]",
          "name": "_questions",
          "type": "string[]"
        },
        {
          "internalType": "uint256",
          "name": "_durationDays",
          "type": "uint256"
        }
      ],
      "name": "createSurvey",
      "outputs": [
        {
          "internalType": "uint256",
          "name": "",
          "type": "uint256"
        }
      ],
      "stateMutability": "nonpayable",
      "type": "function"
    },
    {
      "inputs": [
        {
          "internalType": "uint256",
          "name": "_surveyId",
          "type": "uint256"
        }
      ],
      "name": "getCurrentSurveyInfo",
      "outputs": [
        {
          "internalType": "bool",
          "name": "active",
          "type": "bool"
        },
        {
          "internalType": "bool",
          "name": "resultsPublished",
          "type": "bool"
        },
        {
          "internalType": "uint256",
          "name": "totalResponses",
          "type": "uint256"
        },
        {
          "internalType": "uint256",
          "name": "questionsCount",
          "type": "uint256"
        },
        {
          "internalType": "uint256",
          "name": "timeRemaining",
          "type": "uint256"
        }
      ],
      "stateMutability": "view",
      "type": "function"
    },
    {
      "inputs": [
        {
          "internalType": "uint256",
          "name": "_surveyId",
          "type": "uint256"
        },
        {
          "internalType": "address",
          "name": "_employee",
          "type": "address"
        }
      ],
      "name": "getEmployeeResponseStatus",
      "outputs": [
        {
          "internalType": "bool",
          "name": "responded",
          "type": "bool"
        },
        {
          "internalType": "uint256",
          "name": "responseTime",
          "type": "uint256"
        }
      ],
      "stateMutability": "view",
      "type": "function"
    },
    {
      "inputs": [
        {
          "internalType": "uint256",
          "name": "_surveyId",
          "type": "uint256"
        },
        {
          "internalType": "uint256",
          "name": "_questionId",
          "type": "uint256"
        }
      ],
      "name": "getQuestionResult",
      "outputs": [
        {
          "internalType": "uint8",
          "name": "averageRating",
          "type": "uint8"
        },
        {
          "internalType": "uint8",
          "name": "totalResponses",
          "type": "uint8"
        },
        {
          "internalType": "bool",
          "name": "revealed",
          "type": "bool"
        }
      ],
      "stateMutability": "view",
      "type": "function"
    },
    {
      "inputs": [
        {
          "internalType": "uint256",
          "name": "_surveyId",
          "type": "uint256"
        }
      ],
      "name": "getSurvey",
      "outputs": [
        {
          "internalType": "address",
          "name": "creator",
          "type": "address"
        },
        {
          "internalType": "string",
          "name": "title",
          "type": "string"
        },
        {
          "internalType": "string",
          "name": "description",
          "type": "string"
        },
        {
          "internalType": "uint256",
          "name": "startTime",
          "type": "uint256"
        },
        {
          "internalType": "uint256",
          "name": "endTime",
          "type": "uint256"
        },
        {
          "internalType": "bool",
          "name": "active",
          "type": "bool"
        },
        {
          "internalType": "bool",
          "name": "resultsPublished",
          "type": "bool"
        },
        {
          "internalType": "uint256",
          "name": "totalResponses",
          "type": "uint256"
        }
      ],
      "stateMutability": "view",
      "type": "function"
    },
    {
      "inputs": [
        {
          "internalType": "uint256",
          "name": "_surveyId",
          "type": "uint256"
        }
      ],
      "name": "getSurveyQuestions",
      "outputs": [
        {
          "internalType": "string[]",
          "name": "",
          "type": "string[]"
        }
      ],
      "stateMutability": "view",
      "type": "function"
    },
    {
      "inputs": [],
      "name": "getTotalSurveys",
      "outputs": [
        {
          "internalType": "uint256",
          "name": "",
          "type": "uint256"
        }
      ],
      "stateMutability": "view",
      "type": "function"
    },
    {
      "inputs": [
        {
          "internalType": "uint256",
          "name": "_surveyId",
          "type": "uint256"
        },
        {
          "internalType": "address",
          "name": "_employee",
          "type": "address"
        }
      ],
      "name": "hasResponded",
      "outputs": [
        {
          "internalType": "bool",
          "name": "",
          "type": "bool"
        }
      ],
      "stateMutability": "view",
      "type": "function"
    },
    {
      "inputs": [],
      "name": "owner",
      "outputs": [
        {
          "internalType": "address",
          "name": "",
          "type": "address"
        }
      ],
      "stateMutability": "view",
      "type": "function"
    },
    {
      "inputs": [
        {
          "internalType": "uint256",
          "name": "",
          "type": "uint256"
        },
        {
          "internalType": "uint8",
          "name": "decryptedSum",
          "type": "uint8"
        },
        {
          "internalType": "uint8",
          "name": "decryptedCount",
          "type": "uint8"
        }
      ],
      "name": "processQuestionAverage",
      "outputs": [],
      "stateMutability": "pure",
      "type": "function"
    },
    {
      "inputs": [],
      "name": "protocolId",
      "outputs": [
        {
          "internalType": "uint256",
          "name": "",
          "type": "uint256"
        }
      ],
      "stateMutability": "pure",
      "type": "function"
    },
    {
      "inputs": [
        {
          "internalType": "uint256",
          "name": "_surveyId",
          "type": "uint256"
        }
      ],
      "name": "publishResults",
      "outputs": [],
      "stateMutability": "nonpayable",
      "type": "function"
    },
    {
      "inputs": [
        {
          "internalType": "uint256",
          "name": "",
          "type": "uint256"
        },
        {
          "internalType": "uint256",
          "name": "",
          "type": "uint256"
        }
      ],
      "name": "questionResults",
      "outputs": [
        {
          "internalType": "uint8",
          "name": "averageRating",
          "type": "uint8"
        },
        {
          "internalType": "uint8",
          "name": "totalResponses",
          "type": "uint8"
        },
        {
          "internalType": "bool",
          "name": "revealed",
          "type": "bool"
        }
      ],
      "stateMutability": "view",
      "type": "function"
    },
    {
      "inputs": [
        {
          "internalType": "uint256",
          "name": "_surveyId",
          "type": "uint256"
        },
        {
          "internalType": "uint256",
          "name": "_questionId",
          "type": "uint256"
        }
      ],
      "name": "requestQuestionAverage",
      "outputs": [],
      "stateMutability": "nonpayable",
      "type": "function"
    },
    {
      "inputs": [
        {
          "internalType": "uint256",
          "name": "_surveyId",
          "type": "uint256"
        },
        {
          "internalType": "uint8[]",
          "name": "_ratings",
          "type": "uint8[]"
        }
      ],
      "name": "submitResponse",
      "outputs": [],
      "stateMutability": "nonpayable",
      "type": "function"
    },
    {
      "inputs": [],
      "name": "surveyCounter",
      "outputs": [
        {
          "internalType": "uint256",
          "name": "",
          "type": "uint256"
        }
      ],
      "stateMutability": "view",
      "type": "function"
    },
    {
      "inputs": [
        {
          "internalType": "uint256",
          "name": "",
          "type": "uint256"
        }
      ],
      "name": "surveys",
      "outputs": [
        {
          "internalType": "address",
          "name": "creator",
          "type": "address"
        },
        {
          "internalType": "string",
          "name": "title",
          "type": "string"
        },
        {
          "internalType": "string",
          "name": "description",
          "type": "string"
        },
        {
          "internalType": "uint256",
          "name": "startTime",
          "type": "uint256"
        },
        {
          "internalType": "uint256",
          "name": "endTime",
          "type": "uint256"
        },
        {
          "internalType": "bool",
          "name": "active",
          "type": "bool"
        },
        {
          "internalType": "bool",
          "name": "resultsPublished",
          "type": "bool"
        },
        {
          "internalType": "uint256",
          "name": "totalResponses",
          "type": "uint256"
        }
      ],
      "stateMutability": "view",
      "type": "function"
    },
    {
      "inputs": [
        {
          "internalType": "address",
          "name": "newOwner",
          "type": "address"
        }
      ],
      "name": "transferOwnership",
      "outputs": [],
      "stateMutability": "nonpayable",
      "type": "function"
    }
  ],
  "bytecode": "0x608060405234610161576060610013610166565b60009181838093528260208201528260408201520152610031610166565b606073687820221192c5b662b25367f70076a37bc79b6c9182815273848b0066793bcc60346da1f49049357399b8d59580602083015273a02cda4ca3a71d7c46997716f4283aa851c2881291826040820152731364cbbf2cdf5032c47d8226a6f6fbd2afcdacac938491015260018060a01b0319937f9e7b61f58c47dc699ac88507c4f5bb9f121c03808c5676a8078fe583e464970090858254161790557f9e7b61f58c47dc699ac88507c4f5bb9f121c03808c5676a8078fe583e464970190848254161790557f9e7b61f58c47dc699ac88507c4f5bb9f121c03808c5676a8078fe583e464970290838254161790557f9e7b61f58c47dc699ac88507c4f5bb9f121c03808c5676a8078fe583e464970390828254161790553390825416179055604051611959908161019c8239f35b600080fd5b60405190608082016001600160401b0381118382101761018557604052565b634e487b7160e01b600052604160045260246000fdfe60406080815260048036101561001457600080fd5b600091823560e01c91826309eb2ff91461128c57826312cae455146111b95782631b5f674814610e495782631b9a6f5514610afe5782631e6f231214610b1d5782634f2f696714610afe5782635f828fc514610ab15782635f9c402214610a525782637ca7ec0b14610a5257826386e68b90146109e057826389670e151461096b5782638da5cb5b1461094357826390696096146103d2578263bfad9cc014610265578263d8fb49fe1461021b578263da1f12ab146101fa578263f2fde38b14610176578263f9dbed521461012857505063fd308774146100f457600080fd5b346101255760603660031901126101255760243560ff8116036101205760443560ff8116036101205780f35b600080fd5b80fd5b9091503461017257816003193601126101725760088260209461014961141c565b933581526002865220019060018060a01b0316600052825260ff81600020541690519015158152f35b8280fd5b909150346101725760203660031901126101725780356001600160a01b0381811693918490036101205784541633036101c65750506bffffffffffffffffffffffff60a01b600054161760005580f35b906020606492519162461bcd60e51b8352820152600e60248201526d139bdd08185d5d1a1bdc9a5e995960921b6044820152fd5b838234610217578160031936011261021757602090516127118152f35b5080fd5b9150346101725760203660031901126101725760069135808452600260205261025060018060a01b03838620541633146116fb565b83526002602052822001805460ff1916905580f35b91503461017257602090816003193601126103ce578235928385526002835261029a60018060a01b03838720541633146116fb565b8385526002835260ff6006838720015416610397578385526002835260ff6006838720015460081c166103565783855260028352600782862001541561032657508284526002825280842060068101805461ff0019166101001790556007015490519081527f118f959a74f702cdc24614ce54eaada8f5b8e1b01a9bcf1d1b2fe673bedc51479190a280f35b82606492519162461bcd60e51b8352820152600c60248201526b4e6f20726573706f6e73657360a01b6044820152fd5b82606492519162461bcd60e51b8352820152601960248201527f526573756c747320616c7265616479207075626c6973686564000000000000006044820152fd5b82606492519162461bcd60e51b83528201526013602482015272537572766579207374696c6c2061637469766560681b6044820152fd5b8380fd5b915034610172576103e236611432565b909283855260029360209085825260018060a01b039361040885878a20541633146116fb565b81885286835260ff6006878a20015460081c1615610908578188528683526003906003878a2001548110156108d2578289528784526009878a2001818a528452868920541561088f578289528784526009878a2001818a5284528689209081541561087c57818a52848a2054936001945b8b845487101561056e57878a928a8d936104938b8a6115ab565b9054908b1b1c94831561055e575b8515610547575b6064939495967f9e7b61f58c47dc699ac88507c4f5bb9f121c03808c5676a8078fe583e464970154169051968795869463022f65e760e31b865285015260248401528160448401525af1801561053d578c9061050b575b60019150950194610479565b508681813d8311610536575b610521818361138b565b8101031261053257600190516104ff565b8b80fd5b503d610517565b8a513d8e823e3d90fd5b6064939495506105556117df565b959493506104a8565b92506105686117df565b926104a1565b938a898d8a9461058260ff8f96541661173c565b90845191606083019367ffffffffffffffff9484811086821117610869578752835287830191863684378351156108565782528251600110156108435785830152845193878501948986528a87820152426060820152606081526080810195818710868811176108305786885281519020977f878245876662ba28a480c5ea71726db859fb50222b0a3d7cbbc21cfa336faf00968d885493837f9e7b61f58c47dc699ac88507c4f5bb9f121c03808c5676a8078fe583e46497005416803b1561017257637d6e912360e11b8452608482018e9052839182908490607f199061066d60a482018e6118ef565b0301925af1801561082457610811575b508c907f9e7b61f58c47dc699ac88507c4f5bb9f121c03808c5676a8078fe583e46497025416803b15610217578189518092633263b83b60e01b82528587830152606060248301528183816106d5606482018d6118ef565b633f4c21dd60e21b604483015203925af18015610807576107f3575b508190527f878245876662ba28a480c5ea71726db859fb50222b0a3d7cbbc21cfa336faf0190818a52878d20546107e3578c528852858b2092519384116107d057600160401b84116107d0575081548383558084106107aa575b50908952858920895b8381106107985750505050908161078e7ffa4c7a20351d24e5ac5fb3ae264491197c81e624e67b924b79600dbc73a53b8b959493546115c3565b905551908152a380f35b82518282015591870191600101610754565b828b5283888c2091820191015b8181106107c4575061074b565b600081556001016107b7565b634e487b7160e01b8b526041905260248afd5b8751633f06d22b60e01b81528390fd5b6107fc90611361565b610532578b8d6106f1565b89513d84823e3d90fd5b61081d909d919d611361565b9b8d61067d565b8e8a51903d90823e3d90fd5b634e487b7160e01b8d526041835260248dfd5b634e487b7160e01b8b526032855260248bfd5b634e487b7160e01b8c526032865260248cfd5b634e487b7160e01b8d526041875260248dfd5b634e487b7160e01b8a526032865260248afd5b865162461bcd60e51b8152808601859052601960248201527f4e6f20726573706f6e73657320666f72207175657374696f6e000000000000006044820152606490fd5b865162461bcd60e51b8152808601859052601060248201526f24b73b30b634b21038bab2b9ba34b7b760811b6044820152606490fd5b855162461bcd60e51b8152808501849052601560248201527414995cdd5b1d1cc81b9bdd081c1d589b1a5cda1959605a1b6044820152606490fd5b838234610217578160031936011261021757905490516001600160a01b039091168152602090f35b833461012557602036600319011261012557826109dc91833581526002602052209160018060a01b0383541690830154906005840154906006850154916007860154936109c660026109bf60018a01611482565b9801611482565b975197889760ff808760081c1696169489611527565b0390f35b9083346101255760203660031901126101255782358152600260205281902080546001600160a01b0316916109dc91610a1b60018201611482565b93610a2860028301611482565b9582015460058301549060076006850154940154945197889760ff808760081c1696169489611527565b83823461021757806109dc92610a6736611432565b908252600360205282822090825260205220549051918160ff849360101c169060ff808260081c16911684919260ff60409295948160608601971685521660208401521515910152565b839034610217578260031936011261021757610acb61141c565b9035825260026020526008838320019060018060a01b0316825260205260ff828220541690825191151582526020820152f35b8382346102175781600319360112610217576020906001549051908152f35b8382346102175760803660031901126102175767ffffffffffffffff83358181116103ce57610b4f90369086016113c5565b90602493843582811161021757610b6990369088016113c5565b604435968388116101725736602389011215610172578781013593610b8d856113ad565b94610b9a8851968761138b565b808652602099898b88019260051b82010192368411610e45578a8201925b848410610e1b57505050505060643596855115610de157845115610d9f578715610d5d57600193610be985546115c3565b9889865589825260028b52610c2789832095336bffffffffffffffffffffffff60a01b885416178755610c1e8a8989016115e8565b600287016115e8565b42848601556201518080820291820403610d4c57420195864211610d4c57918593918b99979a989693600587019b8c55600687018561ffff198254161790558160078801556003829701945b610cc7575b50505050505050827f18c8c95ef1b290f7a047a69ab244d646cca230b3f80cb53ee0607c598b7f6916865492610cb685519186835286830190611321565b93878201528033940390a351908152f35b809b969b518c1015610d4457610cdd8c82611581565b519b8554600160401b811015610d31578088610cfc92018855876115ab565b610d1f5790610d1288999a9b9c9d9e89936115e8565b01969b9a9998979b610c73565b5050634e487b7160e01b825250808352fd5b5050634e487b7160e01b82525060418352fd5b869b50610c78565b50634e487b7160e01b815260118352fd5b865162461bcd60e51b81529182018990526019908201527f4475726174696f6e206d75737420626520706f736974697665000000000000006044820152606490fd5b865162461bcd60e51b8152918201899052601f908201527f4d7573742068617665206174206c65617374206f6e65207175657374696f6e006044820152606490fd5b865162461bcd60e51b8152918201899052601590820152745469746c652063616e6e6f7420626520656d70747960581b6044820152606490fd5b8335828111610e41578d91610e3683928f36918801016113c5565b815201930192610bb8565b8880fd5b8680fd5b9091503461017257816003193601126101725780359060249384359467ffffffffffffffff86116102175736602387011215610217578583013590610e8d826113ad565b95610e9a8151978861138b565b8287526020978888018360059560051b83010191368311610e45578401905b82821061119c575050508584526002885260ff9660ff60068387200154161561116657868552600289526005828620015442116111335786855260028952818520976008890191338752828b5260ff84882054166110fd5780519860039960038c0154036110c3579299600981019390885b835181101561101b5784610f3f8286611581565b51166001908181101580611011575b15610fcf57908f889084610f628f9561173c565b945252888c20805491600160401b831015610fbb578f90836001969593610f8f92610fb5960181556115ab565b81929154911b9083821b91600019901b1916179055610fae308261187e565b339061187e565b01610f2b565b5050634e487b7160e01b8c5260418d52898cfd5b8f8d601a8c6064938d519362461bcd60e51b85528401528201527f526174696e67206d757374206265206265747765656e20312d350000000000006044820152fd5b508a811115610f4e565b898e848f8e8c600a888e943389528752848820600160ff198254161790556007810161104781546115c3565b90550190815492600160401b8410156110b25750508161108e9160017f984a1db7bded5074cd8163fbd519f73e2420f4ee068a90e6f2c1baa6c7bc76e195940181556115ab565b81549060031b9033821b9160018060a01b03901b191617905551924284523393a380f35b634e487b7160e01b88526041905286fd5b845162461bcd60e51b8152808a018d905260158188015274082dce6eecae440c6deeadce840dad2e6dac2e8c6d605b1b6044820152606490fd5b835162461bcd60e51b81528089018c905260118187015270105b1c9958591e481c995cdc1bdb991959607a1b6044820152606490fd5b815162461bcd60e51b81528087018a9052600e818501526d14dd5c9d995e48195e1c1a5c995960921b6044820152606490fd5b815162461bcd60e51b81528087018a905260118185015270537572766579206e6f742061637469766560781b6044820152606490fd5b813560ff811681036111b5578152908a01908a01610eb9565b8780fd5b839034610217576020908160031936011261017257919091358152600282526003838220019081546111ea816113ad565b906111f78651928361138b565b8082528482018094845285842084915b83831061126857505050508451938085019181865251809252858501958260051b8601019392955b82871061123c5785850386f35b909192938280611258600193603f198a82030186528851611321565b960192019601959291909261122f565b600188819261127a859b98999b611482565b81520192019201919096949396611207565b83823461021757602036600319011261021757823582526002602052808220600581015490924282111561131557428203918211611302575060a09350905b600683015492600360078201549101549160ff8151958181161515875260081c161515602086015284015260608301526080820152f35b634e487b7160e01b815260118552602490fd5b905060a09350906112cb565b919082519283825260005b84811061134d575050826000602080949584010152601f8019910116010190565b60208183018101518483018201520161132c565b67ffffffffffffffff811161137557604052565b634e487b7160e01b600052604160045260246000fd5b90601f8019910116810190811067ffffffffffffffff82111761137557604052565b67ffffffffffffffff81116113755760051b60200190565b81601f820112156101205780359067ffffffffffffffff821161137557604051926113fa601f8401601f19166020018561138b565b8284526020838301011161012057816000926020809301838601378301015290565b602435906001600160a01b038216820361012057565b6040906003190112610120576004359060243590565b90600182811c92168015611478575b602083101461146257565b634e487b7160e01b600052602260045260246000fd5b91607f1691611457565b9060405191826000825461149581611448565b9081845260209460019160018116908160001461150557506001146114c6575b5050506114c49250038361138b565b565b600090815285812095935091905b8183106114ed5750506114c493508201013880806114b5565b855488840185015294850194879450918301916114d4565b925050506114c494925060ff191682840152151560051b8201013880806114b5565b94919261155660e09794611564939b9a99969b6101009060018060a01b031689528060208a0152880190611321565b908682036040880152611321565b9760608501526080840152151560a0830152151560c08201520152565b80518210156115955760209160051b010190565b634e487b7160e01b600052603260045260246000fd5b80548210156115955760005260206000200190600090565b60001981146115d25760010190565b634e487b7160e01b600052601160045260246000fd5b919091825167ffffffffffffffff8111611375576116068254611448565b601f81116116b1575b50602080601f831160011461164c575081929394600092611641575b50508160011b916000199060031b1c1916179055565b01519050388061162b565b90601f19831695846000526020600020926000905b88821061169957505083600195969710611680575b505050811b019055565b015160001960f88460031b161c19169055388080611676565b80600185968294968601518155019501930190611661565b6000836000526020600020601f840160051c810192602085106116f1575b601f0160051c01915b8281106116e657505061160f565b8181556001016116d8565b90925082906116cf565b1561170257565b60405162461bcd60e51b81526020600482015260126024820152712737ba1039bab93b32bc9031b932b0ba37b960711b6044820152606490fd5b7f9e7b61f58c47dc699ac88507c4f5bb9f121c03808c5676a8078fe583e464970154604051639cd07acb60e01b8152600481019290925260026024830152602090829060449082906000906001600160a01b03165af19081156117d3576000916117a4575090565b90506020813d6020116117cb575b816117bf6020938361138b565b81010312610120575190565b3d91506117b2565b6040513d6000823e3d90fd5b60018060a01b037f9e7b61f58c47dc699ac88507c4f5bb9f121c03808c5676a8078fe583e46497015416604051639cd07acb60e01b815260208160448160008096816004840152600260248401525af191821561187257809261184157505090565b9091506020823d60201161186a575b8161185d6020938361138b565b8101031261012557505190565b3d9150611850565b604051903d90823e3d90fd5b7f9e7b61f58c47dc699ac88507c4f5bb9f121c03808c5676a8078fe583e4649700546001600160a01b0392908316803b1561012057600092836044926040519687958694635ca4b5b160e11b865260048601521660248401525af180156117d3576118e65750565b6114c490611361565b90815180825260208080930193019160005b82811061190f575050505090565b83518552938101939281019260010161190156fea26469706673582212204d58fa0e4cc62c87a889d0f11d2c23ebad5e876e2b484a3d71f07cdc7b01f0c264736f6c63430008180033",
  "linkReferences": {},
  "deployedLinkReferences": {}
}